{
  "contractName": "Worker_relate",
  "abi": [
    {
      "constant": true,
      "inputs": [],
      "name": "s_count",
      "outputs": [
        {
          "name": "",
          "type": "uint256"
        }
      ],
      "payable": false,
      "stateMutability": "view",
      "type": "function"
    },
    {
      "constant": true,
      "inputs": [],
      "name": "registerworker_unm",
      "outputs": [
        {
          "name": "",
          "type": "uint256"
        }
      ],
      "payable": false,
      "stateMutability": "view",
      "type": "function"
    },
    {
      "constant": true,
      "inputs": [],
      "name": "type_number",
      "outputs": [
        {
          "name": "",
          "type": "uint256"
        }
      ],
      "payable": false,
      "stateMutability": "view",
      "type": "function"
    },
    {
      "inputs": [],
      "payable": false,
      "stateMutability": "nonpayable",
      "type": "constructor"
    },
    {
      "constant": false,
      "inputs": [
        {
          "name": "j",
          "type": "uint256"
        }
      ],
      "name": "Worker_register",
      "outputs": [
        {
          "name": "rg_type",
          "type": "uint256"
        },
        {
          "name": "re_user_id",
          "type": "uint256"
        }
      ],
      "payable": false,
      "stateMutability": "nonpayable",
      "type": "function"
    },
    {
      "constant": false,
      "inputs": [
        {
          "name": "_Overview",
          "type": "string"
        },
        {
          "name": "_task_types",
          "type": "uint256"
        },
        {
          "name": "end_date",
          "type": "uint256"
        },
        {
          "name": "w_number",
          "type": "uint256"
        },
        {
          "name": "_per_price",
          "type": "uint256"
        },
        {
          "name": "_per_deposit",
          "type": "uint256"
        }
      ],
      "name": "Task_release",
      "outputs": [
        {
          "name": "tr_user_id",
          "type": "uint256"
        },
        {
          "name": "task_id",
          "type": "uint256"
        }
      ],
      "payable": true,
      "stateMutability": "payable",
      "type": "function"
    },
    {
      "constant": false,
      "inputs": [
        {
          "name": "i",
          "type": "uint256"
        }
      ],
      "name": "Task_accept",
      "outputs": [
        {
          "name": "tc_user_id",
          "type": "uint256"
        }
      ],
      "payable": true,
      "stateMutability": "payable",
      "type": "function"
    },
    {
      "constant": false,
      "inputs": [
        {
          "name": "i",
          "type": "uint256"
        },
        {
          "name": "_submit",
          "type": "string"
        }
      ],
      "name": "Task_submit",
      "outputs": [
        {
          "name": "info",
          "type": "string"
        },
        {
          "name": "task_workerid",
          "type": "uint256"
        }
      ],
      "payable": false,
      "stateMutability": "nonpayable",
      "type": "function"
    },
    {
      "constant": true,
      "inputs": [],
      "name": "Task_getdeposit",
      "outputs": [
        {
          "name": "",
          "type": "uint256"
        }
      ],
      "payable": false,
      "stateMutability": "view",
      "type": "function"
    },
    {
      "constant": false,
      "inputs": [
        {
          "name": "i",
          "type": "uint256"
        },
        {
          "name": "score",
          "type": "uint256"
        },
        {
          "name": "worker_id",
          "type": "uint256"
        }
      ],
      "name": "Task_evalue",
      "outputs": [
        {
          "name": "info",
          "type": "string"
        },
        {
          "name": "_score",
          "type": "uint256"
        }
      ],
      "payable": false,
      "stateMutability": "nonpayable",
      "type": "function"
    },
    {
      "constant": false,
      "inputs": [
        {
          "name": "i",
          "type": "uint256"
        }
      ],
      "name": "publisher_withdraw",
      "outputs": [
        {
          "name": "wks_num",
          "type": "uint256"
        },
        {
          "name": "info",
          "type": "string"
        }
      ],
      "payable": true,
      "stateMutability": "payable",
      "type": "function"
    }
  ],
  "bytecode": "0x60806040526000600255600060065534801561001a57600080fd5b50600033600160006101000a81548173ffffffffffffffffffffffffffffffffffffffff021916908373ffffffffffffffffffffffffffffffffffffffff160217905550600260008190555060048190806001815401808255809150509060018203906000526020600020906004020160009091929091909150505050600254600360008073ffffffffffffffffffffffffffffffffffffffff168152602001908152602001600020819055506002600081548092919060010191905055505061286a806100e96000396000f3006080604052600436106100a4576000357c0100000000000000000000000000000000000000000000000000000000900463ffffffff1680634bb10862146100a95780635cf06e211461016a578063633f9cdb146101955780636bb8ba0314610288578063984894af146102d0578063c4f6da6e146102fb578063d56d2c88146103a4578063d759b9aa146103d8578063e90b806314610403578063eb3d16f91461042e575b600080fd5b3480156100b557600080fd5b506100e86004803603810190808035906020019092919080359060200190929190803590602001909291905050506104ce565b6040518080602001838152602001828103825284818151815260200191508051906020019080838360005b8381101561012e578082015181840152602081019050610113565b50505050905090810190601f16801561015b5780820380516001836020036101000a031916815260200191505b50935050505060405180910390f35b34801561017657600080fd5b5061017f610b80565b6040518082815260200191505060405180910390f35b3480156101a157600080fd5b5061020660048036038101908080359060200190929190803590602001908201803590602001908080601f0160208091040260200160405190810160405280939291908181526020018383808284378201915050505050509192919290505050610b86565b6040518080602001838152602001828103825284818151815260200191508051906020019080838360005b8381101561024c578082015181840152602081019050610231565b50505050905090810190601f1680156102795780820380516001836020036101000a031916815260200191505b50935050505060405180910390f35b34801561029457600080fd5b506102b360048036038101908080359060200190929190505050610f63565b604051808381526020018281526020019250505060405180910390f35b3480156102dc57600080fd5b506102e5611334565b6040518082815260200191505060405180910390f35b610387600480360381019080803590602001908201803590602001908080601f0160208091040260200160405190810160405280939291908181526020018383808284378201915050505050509192919290803590602001909291908035906020019092919080359060200190929190803590602001909291908035906020019092919050505061133a565b604051808381526020018281526020019250505060405180910390f35b6103c260048036038101908080359060200190929190505050611891565b6040518082815260200191505060405180910390f35b3480156103e457600080fd5b506103ed611f0d565b6040518082815260200191505060405180910390f35b34801561040f57600080fd5b50610418611f13565b6040518082815260200191505060405180910390f35b61044c60048036038101908080359060200190929190505050611f1c565b6040518083815260200180602001828103825283818151815260200191508051906020019080838360005b83811015610492578082015181840152602081019050610477565b50505050905090810190601f1680156104bf5780820380516001836020036101000a031916815260200191505b50935050505060405180910390f35b60606000806005868154811015156104e257fe5b90600052602060002090600f020160090160009054906101000a900460ff16151515610576576040517f08c379a000000000000000000000000000000000000000000000000000000000815260040180806020018281038252601b8152602001807f6974206973206e6f7420656e646564206f6620746865207461736b000000000081525060200191505060405180910390fd5b60058681548110151561058557fe5b90600052602060002090600f020160010160009054906101000a900473ffffffffffffffffffffffffffffffffffffffff1673ffffffffffffffffffffffffffffffffffffffff163373ffffffffffffffffffffffffffffffffffffffff1614151561067f576040517f08c379a00000000000000000000000000000000000000000000000000000000081526004018080602001828103825260218152602001807f796f7520617265206e6f7420746865206f776e6572206f66207468652074617381526020017f6b0000000000000000000000000000000000000000000000000000000000000081525060400191505060405180910390fd5b6003600060058881548110151561069257fe5b90600052602060002090600f0201600a01868154811015156106b057fe5b9060005260206000200160009054906101000a900473ffffffffffffffffffffffffffffffffffffffff1673ffffffffffffffffffffffffffffffffffffffff1673ffffffffffffffffffffffffffffffffffffffff168152602001908152602001600020549050600260058781548110151561072957fe5b90600052602060002090600f0201600d018581548110151561074757fe5b90600052602060002090602091828204019190069054906101000a900460ff1660ff161415156107df576040517f08c379a00000000000000000000000000000000000000000000000000000000081526004018080602001828103825260128152602001807f6465706f7369745f6d61726b206572726f72000000000000000000000000000081525060200191505060405180910390fd5b6005851015156107ee57600080fd5b846004828154811015156107fe57fe5b9060005260206000209060040201600001600060058981548110151561082057fe5b90600052602060002090600f020160060154815260200190815260200160002060008282540192505081905550600160048281548110151561085e57fe5b9060005260206000209060040201600201600060058981548110151561088057fe5b90600052602060002090600f02016006015481526020019081526020016000206000828254039250508190555060016004600360003373ffffffffffffffffffffffffffffffffffffffff1673ffffffffffffffffffffffffffffffffffffffff168152602001908152602001600020548154811015156108fd57fe5b9060005260206000209060040201600301600060058981548110151561091f57fe5b90600052602060002090600f02016006015481526020019081526020016000206000828254039250508190555060058681548110151561095b57fe5b90600052602060002090600f0201600a018481548110151561097957fe5b9060005260206000200160009054906101000a900473ffffffffffffffffffffffffffffffffffffffff1673ffffffffffffffffffffffffffffffffffffffff166108fc6005888154811015156109cc57fe5b90600052602060002090600f0201600401546005898154811015156109ed57fe5b90600052602060002090600f0201600c0187815481101515610a0b57fe5b9060005260206000200154019081150290604051600060405180830381858888f19350505050158015610a42573d6000803e3d6000fd5b506004600587815481101515610a5457fe5b90600052602060002090600f0201600d0185815481101515610a7257fe5b90600052602060002090602091828204019190066101000a81548160ff021916908360ff160217905550600586815481101515610aab57fe5b90600052602060002090600f020160040154600587815481101515610acc57fe5b90600052602060002090600f020160020160008282540392505081905550600481815481101515610af957fe5b90600052602060002090600402016000016000600588815481101515610b1b57fe5b90600052602060002090600f0201600601548152602001908152602001600020546040805190810160405280600f81526020017f7776616c75652073756363657373210000000000000000000000000000000000815250909250925050935093915050565b60065481565b6060600080600042600587815481101515610b9d57fe5b90600052602060002090600f0201600001541115610e3c5760009150600090505b600586815481101515610bcd57fe5b90600052602060002090600f020160080154811015610ce4573373ffffffffffffffffffffffffffffffffffffffff16600587815481101515610c0c57fe5b90600052602060002090600f0201600a01600588815481101515610c2c57fe5b90600052602060002090600f0201600e0160003373ffffffffffffffffffffffffffffffffffffffff1673ffffffffffffffffffffffffffffffffffffffff16815260200190815260200160002054815481101515610c8757fe5b9060005260206000200160009054906101000a900473ffffffffffffffffffffffffffffffffffffffff1673ffffffffffffffffffffffffffffffffffffffff161415610cd75760019150610ce4565b8080600101915050610bbe565b8115610dd05784600587815481101515610cfa57fe5b90600052602060002090600f0201600b0182815481101515610d1857fe5b906000526020600020019080519060200190610d359291906124b7565b506002600587815481101515610d4757fe5b90600052602060002090600f0201600d0182815481101515610d6557fe5b90600052602060002090602091828204019190066101000a81548160ff021916908360ff160217905550806040805190810160405280600f81526020017f7375626d697420737563636573732100000000000000000000000000000000008152509093509350610f5a565b6000606060405190810160405280602381526020017f6572726f72202c796f7520646964206e6f74206163636570742074686520746181526020017f736b2e00000000000000000000000000000000000000000000000000000000008152509080905093509350610f5a565b6003600587815481101515610e4d57fe5b90600052602060002090600f0201600d01600588815481101515610e6d57fe5b90600052602060002090600f0201600e0160003373ffffffffffffffffffffffffffffffffffffffff1673ffffffffffffffffffffffffffffffffffffffff16815260200190815260200160002054815481101515610ec857fe5b90600052602060002090602091828204019190066101000a81548160ff021916908360ff1602179055506000606060405190810160405280602181526020017f6974277320746f6f206c61746520746f207375626d697420746865207461736b81526020017f210000000000000000000000000000000000000000000000000000000000000081525090809050935093505b50509250929050565b60008060008060005485101515610fe2576040517f08c379a000000000000000000000000000000000000000000000000000000000815260040180806020018281038252600a8152602001807f74797065206572726f720000000000000000000000000000000000000000000081525060200191505060405180910390fd5b6000600360003373ffffffffffffffffffffffffffffffffffffffff1673ffffffffffffffffffffffffffffffffffffffff1681526020019081526020016000205414151561116757600360003373ffffffffffffffffffffffffffffffffffffffff1673ffffffffffffffffffffffffffffffffffffffff168152602001908152602001600020549150600160048381548110151561107e57fe5b906000526020600020906004020160000160008781526020019081526020016000208190555060016004838154811015156110b557fe5b9060005260206000209060040201600101600087815260200190815260200160002060006101000a81548160ff02191690831515021790555060006004838154811015156110ff57fe5b9060005260206000209060040201600201600087815260200190815260200160002081905550600060048381548110151561113657fe5b906000526020600020906004020160030160008781526020019081526020016000208190555084829350935061132d565b60048190806001815401808255809150509060018203906000526020600020906004020160009091929091909150505050600254600360003373ffffffffffffffffffffffffffffffffffffffff1673ffffffffffffffffffffffffffffffffffffffff16815260200190815260200160002081905550600260008154809291906001019190505550600360003373ffffffffffffffffffffffffffffffffffffffff1673ffffffffffffffffffffffffffffffffffffffff168152602001908152602001600020549150600160048381548110151561124357fe5b9060005260206000209060040201600001600087815260200190815260200160002081905550600160048381548110151561127a57fe5b9060005260206000209060040201600101600087815260200190815260200160002060006101000a81548160ff02191690831515021790555060006004838154811015156112c457fe5b906000526020600020906004020160020160008781526020019081526020016000208190555060006004838154811015156112fb57fe5b906000526020600020906004020160030160008781526020019081526020016000208190555084600160025403935093505b5050915091565b60025481565b600080600080600054891115151561135157600080fd5b34878702111515156113cb576040517f08c379a00000000000000000000000000000000000000000000000000000000081526004018080602001828103825260118152602001807f76616c7565206e6f7420656e6f7567687400000000000000000000000000000081525060200191505060405180910390fd5b6000871115156113da57600080fd5b6005829080600181540180825580915050906001820390600052602060002090600f020160009091929091909150600082015481600001556001820160009054906101000a900473ffffffffffffffffffffffffffffffffffffffff168160010160006101000a81548173ffffffffffffffffffffffffffffffffffffffff021916908373ffffffffffffffffffffffffffffffffffffffff1602179055506002820154816002015560038201548160030155600482015481600401556005820154816005015560068201548160060155600782018160070190805460018160011615610100020316600290046114d2929190612537565b50600882015481600801556009820160009054906101000a900460ff168160090160006101000a81548160ff021916908315150217905550600a820181600a019080546115209291906125be565b50600b820181600b01908054611537929190612610565b50600c820181600c0190805461154e929190612680565b50600d820181600d019080546115659291906126d2565b5050505034600560065481548110151561157b57fe5b90600052602060002090600f0201600201819055508860056006548154811015156115a257fe5b90600052602060002090600f02016006018190555042880160056006548154811015156115cb57fe5b90600052602060002090600f0201600001819055503360056006548154811015156115f257fe5b90600052602060002090600f020160010160006101000a81548173ffffffffffffffffffffffffffffffffffffffff021916908373ffffffffffffffffffffffffffffffffffffffff16021790555089600560065481548110151561165357fe5b90600052602060002090600f020160070190805190602001906116779291906124b7565b506000600560065481548110151561168b57fe5b90600052602060002090600f020160090160006101000a81548160ff0219169083151502179055508660056006548154811015156116c557fe5b90600052602060002090600f0201600301819055508560056006548154811015156116ec57fe5b90600052602060002090600f02016004018190555084600560065481548110151561171357fe5b90600052602060002090600f0201600501819055506000600560065481548110151561173b57fe5b90600052602060002090600f02016008018190555060016004600360003373ffffffffffffffffffffffffffffffffffffffff1673ffffffffffffffffffffffffffffffffffffffff168152602001908152602001600020548154811015156117a057fe5b906000526020600020906004020160030160008b815260200190815260200160002060008282540192505081905550600190505b600254811015611828576004818154811015156117ed57fe5b906000526020600020906004020160010160008a815260200190815260200160002060009054906101000a90505080806001019150506117d4565b600660008154809291906001019190505550600360003373ffffffffffffffffffffffffffffffffffffffff1673ffffffffffffffffffffffffffffffffffffffff16815260200190815260200160002054600160065403935093505050965096945050505050565b600080600080600360003373ffffffffffffffffffffffffffffffffffffffff1673ffffffffffffffffffffffffffffffffffffffff168152602001908152602001600020541415151561194d576040517f08c379a00000000000000000000000000000000000000000000000000000000081526004018080602001828103825260098152602001807f776f726b65725f4944000000000000000000000000000000000000000000000081525060200191505060405180910390fd5b600360003373ffffffffffffffffffffffffffffffffffffffff1673ffffffffffffffffffffffffffffffffffffffff16815260200190815260200160002054915060058481548110151561199e57fe5b90600052602060002090600f02016006015490506004828154811015156119c157fe5b9060005260206000209060040201600101600082815260200190815260200160002060009054906101000a900460ff161515611a65576040517f08c379a000000000000000000000000000000000000000000000000000000000815260040180806020018281038252600b8152602001807f776f726b65725f7479706500000000000000000000000000000000000000000081525060200191505060405180910390fd5b600584815481101515611a7457fe5b90600052602060002090600f020160030154600585815481101515611a9557fe5b90600052602060002090600f020160080154101515611b1c576040517f08c379a000000000000000000000000000000000000000000000000000000000815260040180806020018281038252600d8152602001807f776f726b65725f6e756d6265720000000000000000000000000000000000000081525060200191505060405180910390fd5b42600585815481101515611b2c57fe5b90600052602060002090600f020160000154111515611b4a57600080fd5b34600585815481101515611b5a57fe5b90600052602060002090600f02016005015411151515611be2576040517f08c379a000000000000000000000000000000000000000000000000000000000815260040180806020018281038252600b8152602001807f76616c7565206572726f7200000000000000000000000000000000000000000081525060200191505060405180910390fd5b600584815481101515611bf157fe5b90600052602060002090600f020160080154600585815481101515611c1257fe5b90600052602060002090600f0201600e0160003373ffffffffffffffffffffffffffffffffffffffff1673ffffffffffffffffffffffffffffffffffffffff16815260200190815260200160002081905550600584815481101515611c7357fe5b90600052602060002090600f0201600a013390806001815401808255809150509060018203906000526020600020016000909192909190916101000a81548173ffffffffffffffffffffffffffffffffffffffff021916908373ffffffffffffffffffffffffffffffffffffffff160217905550600585815481101515611cf657fe5b90600052602060002090600f020160080181905550600584815481101515611d1a57fe5b90600052602060002090600f0201600b01806001815401808255809150509060018203906000526020600020016000602060405190810160405280600081525090919091509080519060200190611d729291906124b7565b5050600584815481101515611d8357fe5b90600052602060002090600f0201600c01349080600181540180825580915050906001820390600052602060002001600090919290919091505550600584815481101515611dcd57fe5b90600052602060002090600f0201600d016001908060018154018082558091505090600182039060005260206000209060209182820401919006909192909190916101000a81548160ff021916908360ff1602179055505060016004600360003373ffffffffffffffffffffffffffffffffffffffff1673ffffffffffffffffffffffffffffffffffffffff16815260200190815260200160002054815481101515611e7557fe5b90600052602060002090600402016002016000600587815481101515611e9757fe5b90600052602060002090600f020160060154815260200190815260200160002060008282540192505081905550600360003373ffffffffffffffffffffffffffffffffffffffff1673ffffffffffffffffffffffffffffffffffffffff1681526020019081526020016000205492505050919050565b60005481565b60008054905090565b60006060600080600042600587815481101515611f3557fe5b90600052602060002090600f020160000154101515611fbc576040517f08c379a00000000000000000000000000000000000000000000000000000000081526004018080602001828103825260088152602001807f6e6f775f74696d6500000000000000000000000000000000000000000000000081525060200191505060405180910390fd5b3373ffffffffffffffffffffffffffffffffffffffff16600587815481101515611fe257fe5b90600052602060002090600f020160010160009054906101000a900473ffffffffffffffffffffffffffffffffffffffff1673ffffffffffffffffffffffffffffffffffffffff1614151561209f576040517f08c379a00000000000000000000000000000000000000000000000000000000081526004018080602001828103825260058152602001807f6f776e657200000000000000000000000000000000000000000000000000000081525060200191505060405180910390fd5b6005868154811015156120ae57fe5b90600052602060002090600f020160090160009054906101000a900460ff16151515612142576040517f08c379a00000000000000000000000000000000000000000000000000000000081526004018080602001828103825260058152602001807f656e64656400000000000000000000000000000000000000000000000000000081525060200191505060405180910390fd5b600092505b60058681548110151561215657fe5b90600052602060002090600f02016008015483101561223457600260058781548110151561218057fe5b90600052602060002090600f0201600d018481548110151561219e57fe5b90600052602060002090602091828204019190069054906101000a900460ff1660ff161415612227576005868154811015156121d657fe5b90600052602060002090600f0201600801546040805190810160405280601781526020017f776f726b657220646964206e6f7420656e76616c756520000000000000000000815250945094506124af565b8280600101935050612147565b600160058781548110151561224557fe5b90600052602060002090600f020160090160006101000a81548160ff02191690831515021790555060009150600090505b60058681548110151561228557fe5b90600052602060002090600f0201600801548110156123e75760016005878154811015156122af57fe5b90600052602060002090600f0201600d01828154811015156122cd57fe5b90600052602060002090602091828204019190069054906101000a900460ff1660ff16148061234b5750600360058781548110151561230857fe5b90600052602060002090600f0201600d018281548110151561232657fe5b90600052602060002090602091828204019190069054906101000a900460ff1660ff16145b156123da576005808781548110151561236057fe5b90600052602060002090600f0201600d018281548110151561237e57fe5b90600052602060002090602091828204019190069054906101000a905050506005868154811015156123ac57fe5b90600052602060002090600f0201600c01818154811015156123ca57fe5b9060005260206000200154820191505b8080600101915050612276565b6005868154811015156123f657fe5b90600052602060002090600f020160020154820191503373ffffffffffffffffffffffffffffffffffffffff166108fc839081150290604051600060405180830381858888f19350505050158015612452573d6000803e3d6000fd5b5060058681548110151561246257fe5b90600052602060002090600f0201600801546040805190810160405280601081526020017f7769746864726177207375636365737300000000000000000000000000000000815250945094505b505050915091565b828054600181600116156101000203166002900490600052602060002090601f016020900481019282601f106124f857805160ff1916838001178555612526565b82800160010185558215612526579182015b8281111561252557825182559160200191906001019061250a565b5b5090506125339190612732565b5090565b828054600181600116156101000203166002900490600052602060002090601f016020900481019282601f1061257057805485556125ad565b828001600101855582156125ad57600052602060002091601f016020900482015b828111156125ac578254825591600101919060010190612591565b5b5090506125ba9190612732565b5090565b8280548282559060005260206000209081019282156125ff5760005260206000209182015b828111156125fe5782548255916001019190600101906125e3565b5b50905061260c9190612757565b5090565b82805482825590600052602060002090810192821561266f5760005260206000209182015b8281111561266e578282908054600181600116156101000203166002900461265e929190612537565b5091600101919060010190612635565b5b50905061267c919061279a565b5090565b8280548282559060005260206000209081019282156126c15760005260206000209182015b828111156126c05782548255916001019190600101906126a5565b5b5090506126ce9190612732565b5090565b82805482825590600052602060002090601f0160209004810192821561272157600052602060002091601f016020900482015b82811115612720578254825591600101919060010190612705565b5b50905061272e91906127c6565b5090565b61275491905b80821115612750576000816000905550600101612738565b5090565b90565b61279791905b8082111561279357600081816101000a81549073ffffffffffffffffffffffffffffffffffffffff02191690555060010161275d565b5090565b90565b6127c391905b808211156127bf57600081816127b691906127f6565b506001016127a0565b5090565b90565b6127f391905b808211156127ef57600081816101000a81549060ff0219169055506001016127cc565b5090565b90565b50805460018160011615610100020316600290046000825580601f1061281c575061283b565b601f01602090049060005260206000209081019061283a9190612732565b5b505600a165627a7a72305820ed99c74907c0e235fd9ffd5bcd910d37837c62746e0061bb4ca5c0ab64b5741e0029",
  "source": "pragma solidity ^0.4.0;\r\ncontract Worker_relate {\r\n\r\n    struct Worker {\r\n        //Worker key\r\n        //bool register_tag;\r\n        mapping(uint=>uint) job_types;          // key  value  \r\n        mapping(uint=>bool) receive_mark;       //   \r\n        mapping(uint=>uint) receive_amount;    //  \r\n        //  \r\n        mapping(uint=>uint) release_amount;    //  \r\n    }\r\n    \r\n    struct S_Task {\r\n        // \r\n        uint deadline;\r\n        address owner;\r\n        uint owner_deposit;\r\n        uint worker_number;\r\n        uint per_price;\r\n        uint per_deposit;\r\n        uint _type;\r\n        string  overview;\r\n        uint worker_number_now;\r\n        bool ended;\r\n    \r\n        //worker\r\n        //uint worker_number_now;\r\n        address[] accept;\r\n        string[] submit;\r\n        //bool[] submit_tag;\r\n        //bool[] envalue;\r\n        uint[] workers_deposit;\r\n        uint8[] deposit_mark;\r\n\t\t//deposit_mark\r\n\t\t//1:\r\n\t\t//2:\r\n\t\t//3:\r\n\t\t//4:\r\n\t\t//5:\r\n        mapping(address => uint) tk_user_id;\r\n        \r\n        //\r\n        //string[] submit;\r\n        //bool[] submit_tag;\r\n        \r\n        // \r\n        //bool[] envalue;\r\n        \r\n        //publisher withdraw \r\n        //bool ended;\r\n    }\r\n\r\n    uint public type_number;\t\t//\r\n    address chairperson;\t//\r\n    uint public registerworker_unm=0;\t\t\t    //\r\n    mapping(address => uint) worker_ID;\t\t//uint\r\n    Worker[] workers;\t\t\t\t\t\t//\r\n    S_Task[] tasks;\t\t\t\t\t\t\t//\r\n    uint public s_count=0;\t\t\t\t\t\t\t//\r\n    function Worker_relate() public {\r\n        chairperson = msg.sender;\r\n        type_number=2;\r\n        Worker temp;\r\n        // temp.job_types[0]        =1;\r\n        // temp.receive_mark[0]     =true;\r\n        // temp.receive_amount[0]   =0;\r\n        // temp.release_amount[0]   =0;\r\n        workers.push(temp);\r\n        worker_ID[0x0000000000000000000000000000000000000000000000000000000000000000]=registerworker_unm;\r\n        registerworker_unm++;\r\n    }\r\n\r\n//  \r\n    function  Worker_register(uint j) public returns(uint rg_type, uint re_user_id) {\r\n        require(j<type_number,\"type error\");\r\n        uint i;\r\n        if(uint(worker_ID[msg.sender])!=0){\r\n            i = worker_ID[msg.sender];\r\n            workers[i].job_types[j]        =1;\r\n            workers[i].receive_mark[j]     =true;\r\n            workers[i].receive_amount[j]   =0;\r\n            workers[i].release_amount[j]   =0;\r\n            return (j,i);\r\n        }else {\r\n            Worker temp;\r\n            // temp.job_types[j]        =1;\r\n            // temp.receive_mark[j]     =true;\r\n            // temp.receive_amount[j]   =0;\r\n            // temp.release_amount[j]   =0;\r\n            workers.push(temp);\r\n            worker_ID[msg.sender]=registerworker_unm;\r\n            //i=registerworker_unm;\r\n            registerworker_unm++;\r\n            i = worker_ID[msg.sender];\r\n            workers[i].job_types[j]        =1;\r\n            workers[i].receive_mark[j]     =true;\r\n            workers[i].receive_amount[j]   =0;\r\n            workers[i].release_amount[j]   =0;\r\n            return (j,registerworker_unm-1);\r\n        }    \r\n    }\r\n\r\n//     \r\n    function Task_release(string _Overview, uint _task_types, uint end_date, uint w_number, uint _per_price, uint _per_deposit) \r\n    public payable  returns(uint tr_user_id, uint task_id ) {\r\n        require(_task_types<=type_number); //   \r\n        //require(end_data > now, \"now\");\r\n        require(_per_price*w_number<=msg.value, \"value not enought\");\r\n        require(w_number>0);\r\n        S_Task temp;\r\n        tasks.push(temp);\r\n        tasks[s_count].owner_deposit = msg.value;\r\n        tasks[s_count]._type = _task_types;\r\n        tasks[s_count].deadline=end_date+now;\r\n        tasks[s_count].owner = msg.sender;\r\n        tasks[s_count].overview = _Overview;\r\n        tasks[s_count].ended = false;\r\n        tasks[s_count].worker_number=w_number;\r\n        tasks[s_count].per_price = _per_price;\r\n        tasks[s_count].per_deposit=_per_deposit;\r\n        tasks[s_count].worker_number_now=0;\r\n        // tasks.push(S_Task({\r\n        //     deadline:end_data+now,\r\n        //     owner:msg.sender, \r\n        //     worker_number:w_number,\r\n        //     _type:_task_types,\r\n        //     overview:_Overview,\r\n        //     worker_number_now:0,\r\n        //     ended:false\r\n        // }));\r\n        workers[worker_ID[msg.sender]].release_amount[_task_types]+=1;\r\n        for(uint i=1; i<registerworker_unm; i++){\r\n            if(workers[i].receive_mark[_task_types]){\r\n                // inform workers\r\n            }\r\n        }\r\n        s_count++;\r\n        //send deposit\r\n        return (worker_ID[msg.sender], s_count-1);\r\n    }\r\n\r\n//     \r\n    function Task_accept(uint i) public payable returns(uint tc_user_id){\r\n        require(worker_ID[msg.sender]!=0, \"worker_ID\");\r\n        uint j=worker_ID[msg.sender];\r\n        uint k=tasks[i]._type;\r\n        require(workers[j].receive_mark[k], \"worker_type\");\r\n        require(tasks[i].worker_number_now < tasks[i].worker_number,\"worker_number\");\r\n        require(tasks[i].deadline > now);\r\n        require(tasks[i].per_deposit<=msg.value,\"value error\");\r\n        tasks[i].tk_user_id[msg.sender]=tasks[i].worker_number_now;\r\n        tasks[i].worker_number_now=tasks[i].accept.push(msg.sender);\r\n        //tasks[i].envalue.push(false);\r\n        tasks[i].submit.push(\"\");\r\n        //tasks[i].submit_tag.push(false);\r\n        tasks[i].workers_deposit.push(msg.value);\r\n        tasks[i].deposit_mark.push(1);\r\n        \r\n        workers[worker_ID[msg.sender]].receive_amount[tasks[i]._type]+=1;\r\n        //send deposit\r\n        return ( worker_ID[msg.sender]);\r\n    }\r\n\r\n//     \r\n    function Task_submit(uint i, string _submit) public returns(string info, uint task_workerid){\r\n        if(tasks[i].deadline>now){\r\n            bool tag=false;\r\n            for(uint j=0; j<tasks[i].worker_number_now; j++){\r\n                if(tasks[i].accept[tasks[i].tk_user_id[msg.sender]]==msg.sender){\r\n                    tag = true;\r\n                    break;\r\n                }\r\n            }\r\n            if(tag){\r\n                //require(tasks[i].submit[j-1]!=\"\");\r\n                tasks[i].submit[j] =_submit;\r\n                //tasks[i].submit_tag[j] =true;\r\n                tasks[i].deposit_mark[j]= 2;\r\n                //inform boss\r\n                return(\"submit success!\",j);\r\n            }else {\r\n                //inform error(don't accept the task)\r\n                return (\"error ,you did not accept the task.\",0);\r\n            }\r\n        }else{\r\n            // send penalty\r\n            tasks[i].deposit_mark[tasks[i].tk_user_id[msg.sender]]=3;\r\n            return (\"it's too late to submit the task!\",0);\r\n        }\r\n    }\r\n//\r\n    function Task_getdeposit()external constant returns(uint){\r\n        //require(i<s_count);\r\n        return type_number;\r\n    }\r\n\r\n//     \r\n    function Task_evalue(uint i, uint score, uint worker_id) public returns (string info, uint _score){\r\n        require(!tasks[i].ended,\"it is not ended of the task\");\r\n        require(msg.sender==tasks[i].owner,\"you are not the owner of the task\");\r\n        //require(tasks[i].deposit_mark[worker_id]==1,\"deposit_mark error\");\r\n        uint user_id=worker_ID[tasks[i].accept[worker_id]];\r\n        require(tasks[i].deposit_mark[worker_id]==2,\"deposit_mark error\");\r\n        //tasks[i].envalue[worker_id]=true;\r\n        require(score<5);\r\n        workers[user_id].job_types[tasks[i]._type]+=score;\r\n        workers[user_id].receive_amount[tasks[i]._type]-=1;\r\n        workers[worker_ID[msg.sender]].release_amount[tasks[i]._type]-=1;\r\n        \r\n        //payment and return deposit\r\n        tasks[i].accept[worker_id].transfer(tasks[i].workers_deposit[worker_id]+tasks[i].per_price);\r\n        tasks[i].deposit_mark[worker_id]=4;\r\n        tasks[i].owner_deposit-=tasks[i].per_price;\r\n        return (\"wvalue success!\", workers[user_id].job_types[tasks[i]._type]);\r\n    }\r\n\r\n//     \r\n    function publisher_withdraw(uint i) public payable returns(uint wks_num, string info) {\r\n        require(tasks[i].deadline<now,\"now_time\");\r\n        require(tasks[i].owner==msg.sender,\"owner\");\r\n        require(!tasks[i].ended,\"ended\");\r\n        for(uint k=0; k<tasks[i].worker_number_now;k++){\r\n            if(tasks[i].deposit_mark[k]==2){\r\n                //inform worker[k] envalue is false\r\n                return (tasks[i].worker_number_now, \"worker did not envalue \");\r\n            }\r\n        }\r\n        tasks[i].ended=true;\r\n        uint drawback=0;\r\n        for(uint j=0;j<tasks[i].worker_number_now;j++){\r\n            if(tasks[i].deposit_mark[j]==1||tasks[i].deposit_mark[j]==3){\r\n                tasks[i].deposit_mark[j]==5;\r\n                drawback+=tasks[i].workers_deposit[j];\r\n                //send the deposit to publisher\r\n            }\r\n        }\r\n        // uint drawback= address(this).balance;\r\n        // msg\r\n        drawback+=tasks[i].owner_deposit;\r\n        msg.sender.transfer(drawback);\r\n        return (tasks[i].worker_number_now, \"withdraw success\");\r\n        //return deposit\r\n    }\r\n\r\n}\r\n\r\n    \r\n\r\n\r\n",
  "sourcePath": "/home/eth2/Crowtest/contracts/Crow.sol",
  "compiler": {
    "name": "solc",
    "version": "0.4.23+commit.124ca40d.Emscripten.clang"
  },
  "schemaVersion": "2.0.0",
  "updatedAt": "2018-05-25T03:31:41.317Z"
}